:100000002AC04EC04DC04CC04BC04AC049C048C0B9
:1000100047C046C045C0D2C143C042C041C040C035
:100020003FC00000010203040000000000000001C6
:1000300002048040201008040201080202020101AB
:100040000101010101010200003B00380000003AFB
:1000500000370000C20111241FBECFE5D1E0DEBF92
:10006000CDBF10E0A0E6B0E0E8E8F6E002C0059001
:100070000D92A437B107D9F720E0A4E7B0E001C0A2
:100080001D92AA38B207E1F710E0CBE2D0E003C03E
:100090002197FE01F1D2CA32D107D1F7E7D2F2C2DD
:1000A000AFCFCF93DF93C5E6D0E060E08991AED2C9
:1000B00080E0CA36D807C9F7DF91CF91089581E073
:1000C0002FD290937900809378008C52914081399F
:1000D0009140A8F16CE271E080E090E0DFD1E1DFD7
:1000E000209178003091790080917F002D3B92E043
:1000F000390738F0843010F48F5F0BC010927F0006
:100100000AC02C32314038F4882311F0815001C0EC
:1001100084E080937F0080917F0090E0FC01EE0FEF
:10012000FF1FE659FF4F2081318130937E002093DD
:100130007D00FC01EB59FF4F61E0808167C20895AB
:10014000CF93982F862FC42F913049F030F0923002
:1001500041F0933079F461E008C060E006C060E0EF
:1001600001C061E053D260E002C050D261E08C2F48
:10017000CF914CC2CF910895CF93C0E041E060E0B1
:100180008C2FDEDF80917D0090917E00ABD1CF5F20
:10019000C430A1F7CF910895CF93813011F4CF915E
:1001A000EBCFC3E041E060E08C2FCADF80917D009F
:1001B00090917E0097D1C150A8F7CF91089587E024
:1001C000AFD12091640030E02817390710F080E0AB
:1001D00090E008950F931F93CF93DF93F0DF8C018E
:1001E0006EDF80E09DD190937B0080937A00893C04
:1001F00022E0920748F01092630010926200109281
:100200006100109260000AC0883321E0920730F448
:1002100022E030E030936300209362009C01295378
:1002200031402F38314078F4809160009091610026
:10023000892B49F40115110531F081E090E090938C
:100240006300809362008091620090916300039745
:1002500030F480917C00811102C061E001C060E057
:1002600082E0D4D1C0916200D0916300C130D10549
:1002700099F080F0C230D10509F453C0C330D105E4
:1002800009F057C060E082E0C1D1D0936300C09311
:1002900062004FC071DF47C080917D0090917E0069
:1002A0009093770080937600809172009091730014
:1002B00090937E0080937D0066E970E080E090E09E
:1002C000EDD010927500109274008091740090919E
:1002D00075008017910768F480E05EDF209174005C
:1002E000309175002F5F3F4F30937500209374005D
:1002F000ECCF62E370E080E090E0D0D083E090E06B
:1003000090936300809362009093610080936000FB
:10031000809176009091770090937E0080937D008D
:1003200008C080E039DF83E090E090936300809321
:100330006200DF91CF911F910F91089561E082E0FB
:1003400029D160E082E062D161E080E023D161E008
:1003500081E020D161E084E01DD161E085E01AD127
:1003600061E086E017D161E087E014D161E088E0C8
:1003700011D1E0917F00F0E0EB59FF4F61E0808107
:1003800045C128CF80916A0090916B0090937E00C8
:1003900080937D0008958EB5887F8EBD8FB5816076
:1003A0008FBD8FB58D7F8FBD8EB5877F8EBD8EB58E
:1003B0008F7E8EBD8EB583608EBD08951F920F9285
:1003C0000FB60F9211242F933F938F939F93AF9368
:1003D000BF938091810090918200A0918300B091A1
:1003E00084003091800026E0230F2D3730F029E87B
:1003F000230F0396A11DB11D03C00296A11DB11DBF
:10040000209380008093810090938200A0938300CA
:10041000B09384008091850090918600A091870020
:10042000B09188000196A11DB11D80938500909325
:100430008600A0938700B0938800BF91AF919F91F1
:100440008F913F912F910F900FBE0F901F90189595
:100450003FB7F8948091850090918600A091870025
:10046000B091880022B708B600FE05C02F3F19F0F2
:100470000196A11DB11D3FBFBA2FA92F982F882724
:10048000820F911DA11DB11DBC01CD0143E0660F7E
:10049000771F881F991F4A95D1F70895CF92DF9251
:1004A000EF92FF92CF93DF936B017C01D1DFEB01E1
:1004B000C114D104E104F10471F0CADF6C1B7D0B9F
:1004C000683E7340A8F381E0C81AD108E108F1083A
:1004D000C851DC4FEDCFDF91CF91FF90EF90DF90CF
:1004E000CF9008958330910528F0880F991F0497C5
:1004F0000197F1F7089580B7826080BF80B781606F
:1005000080BF83B7887F836083BF789489B7816019
:1005100089BF41DF86B18877866886B9379A0895A2
:100520008C3018F08C50803480F490918900929532
:10053000990F990F907C892B87B9369A3699FECFFF
:1005400084B125B190E0922B089580E090E0089569
:10055000813031F480B78F7780BF80B78F7B07C041
:10056000823039F480B78F7D80BF80B78F7E80BFA7
:100570000895833031F48FB58F778FBD8FB58F7B22
:1005800007C0843031F48FB58F7D8FBD8FB58F7EDE
:100590008FBD0895CF93DF9390E0FC01E15DFF4FA5
:1005A0002491FC01E55CFF4F8491882361F190E088
:1005B000880F991FFC01E35BFF4FC591D491FC01AB
:1005C000E95BFF4FA591B491611109C09FB7F89401
:1005D0008881209582238883EC912E230BC0623082
:1005E00061F49FB7F8943881822F809583238883A4
:1005F000EC912E2B2C939FBF06C08FB7F894E88107
:100600002E2B28838FBFDF91CF9108951F93CF9317
:10061000DF93282F30E0F901EE5DFF4F8491F9015F
:10062000E15DFF4FD491F901E55CFF4FC491CC230C
:10063000C9F0162F81118CDFEC2FF0E0EE0FFF1FB9
:10064000E95BFF4FA591B4918FB7111106C0F894E3
:100650009C91ED2FE095E92303C0F894EC91ED2BEC
:10066000EC938FBFDF91CF911F91089581B781BF28
:1006700042DF64DE86DEFECFEE0FFF1F0590F491B1
:08068000E02D0994F894FFCF6E
:10068800030003000F0405060708204E1027701703
:04069800A00FD007D8
:0200000002C03C
:00000001FF
